:100000000BC168C43AC423C122C121C1ECC31FC1C2
:100010001EC11DC11CC11BC11AC119C118C117C104
:1000200016C115C114C113C112C100003900360038
:100030000000300000003A003700000031000000EE
:100040003B003800000032000404010104040404F1
:100050000402020202020202020101020201040879
:10006000102040010204081020408004000000001D
:100070000000000200000001030400000000000076
:100080000000000000000000000000096000000007
:1000900000000071310000007A7361773200006364
:1000A0007864653433000020766674723500006E23
:1000B00062686779360000006D6A75373800002C79
:1000C0006B696F303900002E2F6C3B702D000000E3
:1000D00027005B3D000000000D5D005C000000009B
:1000E000000000007F000031003437000000302E97
:1000F000323536381B00002B332D2A390000000022
:1001000000000000000000000000000000000000EF
:10011000000000097E0000000000005121000000E6
:100120005A534157400000435844452423000020BF
:10013000564654522500004E424847595E00000082
:100140004D4A55262A00003C4B494F292800003EC5
:100150003F4C3A505F00000022007B2B0000000063
:100160000D7D007C00000000000000007F000031D9
:10017000003437000000302E323536381B00002B9B
:10018000332D2A39000000000000000000000000AC
:10019000000000000000000000000000000000005F
:1001A000000000000000000000000000000000004F
:1001B000000000000000000000000000000000003F
:1001C000000000000000000000000000000000002F
:1001D000000000000000000000000000000000001F
:1001E000000000000000000000000000000000000F
:1001F00000000000000000000000000000000000FF
:1002000000000000000000000000000000000000EE
:10021000000000000000000011241FBECFE5D1E067
:10022000DEBFCDBF10E0A0E6B0E0E6EBFAE002C032
:1002300005900D92AC39B107D9F720E0ACE9B0E0F8
:1002400001C01D92AE3FB207E1F771D332C4D8CEE0
:100250008230A0F49FB7F894E82FF0E0EE0FFF1F74
:10026000E650FF4F718360839FBF813041F085B7B7
:100270008C7F826085BF8BB780648BBF089585B704
:10028000837F886085BF8BB78068F7CF3FB7F894CE
:100290008091E2009091E300A091E400B091E5002C
:1002A00022B708B601FE05C02F3F19F00196A11D27
:1002B000B11D3FBFBA2FA92F982F8827BC01CD01B0
:1002C000620F711D811D911D43E0660F771F881F0E
:1002D000991F4A95D1F70895CF92DF92EF92FF923E
:1002E000CF93DF936B017C01D1DFEB01CFDF6C1B80
:1002F0007D0B683E7340A0F0C114D104E104F10409
:1003000039F4DF91CF91FF90EF90DF90CF90089577
:1003100081E0C81AD108E108F108C851DC4FE6CFE6
:10032000C114D104E104F10409F7EBCF2FB7F8941D
:100330006091DE007091DF008091E0009091E1001B
:100340002FBF08959091E6008091E700891761F032
:100350009F5F9D3208F090E0E92FF0E0EE55FF4FEF
:1003600080819093E600089580E00895EBDFE82F08
:10037000882309F479C08091CF00E03F21F48160A7
:100380008093CF00F3CFE03E11F48260F9CF80FF7D
:1003900017C0E23139F48B7F8093CF008091CF007A
:1003A0008C7FEECFE93511F4877FF6CFE43111F47D
:1003B0008F7DF2CFE13191F781FFF0CF8F7EECCFCF
:1003C000E23111F48460DCCFE93511F48860D8CFD4
:1003D000E43111F48062D4CFE13129F481FF03C00C
:1003E00080618093CF009091CF0091FF0EC0EA54BE
:1003F000E433D8F4F0E0E05AFF4F80819C7F909383
:10040000CF00882309F4B2CF089594FF10C0209143
:10041000E8003091E900D901A05FBE4F8C9188239C
:1004200031F02F5E3E4FE83868F080E0E7CF892F4B
:100430008C7069F0E838C8F72091E8003091E90045
:1004400028573F4FE20FF32FF11D8491D7CF95FF2F
:1004500004C088E1E23249F7D1CFE83830F7209183
:10046000E8003091E900EECF80E0089587FD8FEF3E
:1004700090E0FC01E459FF4F3491FC01E65AFF4F34
:100480002491FC01E85BFF4FE491EE23B9F03323A4
:1004900029F03130A1F480B78F7780BFF0E0EE0F04
:1004A000FF1FE25CFF4FA591B4918FB7611117C098
:1004B000F894EC9120952E232C938FBF0895323021
:1004C00019F480B78F7DE9CF333021F48FB58F7762
:1004D0008FBDE4CF343011F78FB58F7DF9CFF8940D
:1004E000EC912E2BE9CFEF92FF920F931F93CF93B6
:1004F000DF93E82E61E081E0B9DFC4E9D0E001E0FC
:1005000010E00E2C000CFF08899161E09701202378
:100510003123232B09F460E0A9DF000F111F80E0D5
:10052000CC39D80789F761E070E080E090E0D4DE54
:1005300060E081E09BDF62E070E080E090E0CCDE94
:1005400061E081E0DF91CF911F910F91FF90EF90DB
:100550008DCFCF93DF9387FD8FEF90E0FC01E65ABC
:10056000FF4F2491885B9F4FFC0184918823D1F039
:1005700090E0880F991FFC01EC5CFF4FA591B491AE
:10058000FC01E25CFF4FC591D491623071F49FB7DA
:10059000F8943C91822F809583238C93E8812E2BB5
:1005A00028839FBFDF91CF9108958FB7F894EC9186
:1005B0002E2B2C938FBFF6CF8091DB009091DC0027
:1005C0008A3091056CF49C012F5F3F4F3093DC0023
:1005D0002093DB0080539F4FFC01608180E046CF79
:1005E0000A9739F48BE090E09093DC008093DB0075
:1005F00008958BB78F7B8BBF1092FB001092FA008F
:1006000062E080E0A6DF68E773E080E021CECF9271
:10061000DF92EF92FF921092D000E1EDF0E090E0D7
:1006200080E02EEE422F50E021702193211101969F
:100630009A013595279530E0E93DF30799F78095C4
:10064000909581708093D90081E08093DA008BB718
:100650008F7B8BBF1092FB001092FA0061E084E068
:1006600078DF60E084E002DF61E070E080E090E04D
:1006700033DE61E080E06DDF60E080E0F7DE62E0C5
:1006800084E067DF1092DC001092DB006CED72E01A
:1006900080E0DEDD69E170E080E090E01DDE8BB798
:1006A0008F7B8BBF1092FB001092FA0062E080E01B
:1006B00050DF68E773E080E0CBDD38DE6B017C0162
:1006C00041DE8E3E99F0882331F080E0FF90EF907C
:1006D000DF90CF9008952ADE6C197D098E099F095D
:1006E000643171058105910558F3EFCF81E0EECFBC
:1006F000CF92DF92EF92FF920F931F93CF93DF93EE
:100700008091EA0087FD8FEF90E0FC01E65AFF4FF1
:100710002491FC01E85BFF4FE491C0E0EE2369F017
:10072000F0E0EE0FFF1FE65DFF4FA591B491EC9155
:10073000E22391E009F490E0C92FF8DD00919E00DA
:1007400010919F002091A0003091A1006B017C01CD
:10075000C01AD10AE20AF30A970186010B3F11057C
:100760002105310520F010929D0010929C006093AD
:100770009E0070939F008093A0009093A1008091B1
:100780009D009FEF980F983048F401C0CC0F9A95C8
:10079000EAF790919C00C92BC0939C008F5F8093D7
:1007A0009D008B30B9F48091E7008F5F8D3208F0A7
:1007B00080E09091E600981749F0E82FF0E09091E2
:1007C0009C00EE55FF4F90838093E70010929D00B0
:1007D00010929C00DF91CF911F910F91FF90EF90AD
:1007E000DF90CF9008951F920F920FB60F921124B1
:1007F0002F933F938F939F93AF93BF938091DE008E
:100800009091DF00A091E000B091E1003091DD0017
:1008100026E0230F2D3768F129E8230F0396A11D49
:10082000B11D2093DD008093DE009093DF00A09344
:10083000E000B093E1008091E2009091E300A0918C
:10084000E400B091E5000196A11DB11D8093E20086
:100850009093E300A093E400B093E500BF91AF91C3
:100860009F918F913F912F910F900FBE0F901F90EE
:1008700018950296A11DB11DD4CF1F920F920FB6ED
:100880000F9211242F933F934F935F936F937F9316
:100890008F939F93AF93BF93EF93FF938091FC004F
:1008A0009091FD00892B29F0E091FC00F091FD0072
:1008B0000995FF91EF91BF91AF919F918F917F919A
:1008C0006F915F914F913F912F910F900FBE0F90BD
:1008D0001F9018951F920F920FB60F9211242F930D
:1008E0003F934F935F936F937F938F939F93AF93B8
:1008F000BF93EF93FF938091FA009091FB00892BB7
:1009000029F0E091FA00F091FB000995FF91EF9139
:10091000BF91AF919F918F917F916F915F914F9117
:100920003F912F910F900FBE0F901F90189583E06D
:1009300080BF83BF789489B7826089BFC4E9D0E063
:100940000CE910E0F99061E08F2D03DE60E08F2D5F
:100950008DDD0C171D07B1F762E085E0FADD61E07F
:1009600081E0F7DD61E081E081DD68EE73E080E049
:1009700090E0B2DC1092EA008EE790E09093E900FC
:100980008093E80062E084E0E4DD62E080E0E1DDA5
:100990001092E7001092E60068E773E080E058DC10
:1009A00036DE8093ED00882309F44BC08FEF9BDD8A
:1009B000D1E08091F20081110BC0B8DC6093EE00B1
:1009C0007093EF008093F0009093F100D093F200C9
:1009D000ADDC6B017C01C091EC008091EB008111DA
:1009E00032C0C11130C0C2DC8093EB0081112BC03A
:1009F0008091EE009091EF00A091F000B091F10095
:100A0000A7019601281B390B4A0B5B0BDA01C901C0
:100A100089389341A105B10560F2C092EE00D092F1
:100A2000EF00E092F000F092F100F1DD9091ED0026
:100A3000891709F4BECF8093ED008823C1F18FEFB1
:100A400034C08EEFB4CFC092EE00D092EF00E092AF
:100A5000F000F092F100CC2321F01092EC008C2FEA
:100A60001AC0C091EB00CC2379F01092EB00C7FFC5
:100A70000EC08C2F8F7380688093EC00C295C69552
:100A8000C695C370C06CEBCF71DCC82FF0CF8FEF71
:100A90009FEFC111E4CFC82F8091ED00811104C0F8
:100AA000D093ED008FEF1FDD8C2F1DDD82CF8EEFF9
:060AB000FCCFF894FFCF1B
:100AB6002F00000000000000000000000000000001
:100AC6000D00000000000000000000000000000013
:100AD600000800000000007F0A00150B000000005F
:0C0AE6001A000019090A0B0C0D0E0F106D
:00000001FF
